{
  "address": "0x4FC7E8EDBCF9a60d04b304D2d7Fc01F1558a09db",
  "abi": [
    {
      "inputs": [],
      "stateMutability": "nonpayable",
      "type": "constructor"
    },
    {
      "anonymous": false,
      "inputs": [
        {
          "indexed": true,
          "internalType": "address",
          "name": "owner",
          "type": "address"
        },
        {
          "indexed": true,
          "internalType": "address",
          "name": "approved",
          "type": "address"
        },
        {
          "indexed": true,
          "internalType": "uint256",
          "name": "tokenId",
          "type": "uint256"
        }
      ],
      "name": "Approval",
      "type": "event"
    },
    {
      "anonymous": false,
      "inputs": [
        {
          "indexed": true,
          "internalType": "address",
          "name": "owner",
          "type": "address"
        },
        {
          "indexed": true,
          "internalType": "address",
          "name": "operator",
          "type": "address"
        },
        {
          "indexed": false,
          "internalType": "bool",
          "name": "approved",
          "type": "bool"
        }
      ],
      "name": "ApprovalForAll",
      "type": "event"
    },
    {
      "anonymous": false,
      "inputs": [
        {
          "indexed": false,
          "internalType": "uint256",
          "name": "_fromTokenId",
          "type": "uint256"
        },
        {
          "indexed": false,
          "internalType": "uint256",
          "name": "_toTokenId",
          "type": "uint256"
        }
      ],
      "name": "BatchMetadataUpdate",
      "type": "event"
    },
    {
      "anonymous": false,
      "inputs": [
        {
          "indexed": false,
          "internalType": "uint256",
          "name": "_tokenId",
          "type": "uint256"
        }
      ],
      "name": "MetadataUpdate",
      "type": "event"
    },
    {
      "anonymous": false,
      "inputs": [
        {
          "indexed": true,
          "internalType": "address",
          "name": "previousOwner",
          "type": "address"
        },
        {
          "indexed": true,
          "internalType": "address",
          "name": "newOwner",
          "type": "address"
        }
      ],
      "name": "OwnershipTransferred",
      "type": "event"
    },
    {
      "anonymous": false,
      "inputs": [
        {
          "indexed": true,
          "internalType": "address",
          "name": "owner",
          "type": "address"
        },
        {
          "indexed": true,
          "internalType": "uint256",
          "name": "tokenId",
          "type": "uint256"
        },
        {
          "indexed": false,
          "internalType": "string",
          "name": "name",
          "type": "string"
        },
        {
          "indexed": false,
          "internalType": "string",
          "name": "main_field_position",
          "type": "string"
        },
        {
          "indexed": false,
          "internalType": "string",
          "name": "nationality",
          "type": "string"
        },
        {
          "indexed": false,
          "internalType": "string",
          "name": "current_team",
          "type": "string"
        },
        {
          "indexed": false,
          "internalType": "uint256",
          "name": "playerScore",
          "type": "uint256"
        },
        {
          "indexed": false,
          "internalType": "uint256",
          "name": "year",
          "type": "uint256"
        }
      ],
      "name": "PlayerMinted",
      "type": "event"
    },
    {
      "anonymous": false,
      "inputs": [
        {
          "indexed": true,
          "internalType": "address",
          "name": "from",
          "type": "address"
        },
        {
          "indexed": true,
          "internalType": "address",
          "name": "to",
          "type": "address"
        },
        {
          "indexed": true,
          "internalType": "uint256",
          "name": "tokenId",
          "type": "uint256"
        }
      ],
      "name": "Transfer",
      "type": "event"
    },
    {
      "inputs": [
        {
          "internalType": "string",
          "name": "name",
          "type": "string"
        },
        {
          "internalType": "string",
          "name": "main_field_position",
          "type": "string"
        },
        {
          "internalType": "string",
          "name": "nationality",
          "type": "string"
        },
        {
          "internalType": "string",
          "name": "current_team",
          "type": "string"
        },
        {
          "internalType": "uint256",
          "name": "playerScore",
          "type": "uint256"
        },
        {
          "internalType": "uint256",
          "name": "year",
          "type": "uint256"
        }
      ],
      "name": "addPlayer",
      "outputs": [],
      "stateMutability": "nonpayable",
      "type": "function"
    },
    {
      "inputs": [
        {
          "internalType": "address",
          "name": "to",
          "type": "address"
        },
        {
          "internalType": "uint256",
          "name": "tokenId",
          "type": "uint256"
        }
      ],
      "name": "approve",
      "outputs": [],
      "stateMutability": "nonpayable",
      "type": "function"
    },
    {
      "inputs": [
        {
          "internalType": "address",
          "name": "owner",
          "type": "address"
        }
      ],
      "name": "balanceOf",
      "outputs": [
        {
          "internalType": "uint256",
          "name": "",
          "type": "uint256"
        }
      ],
      "stateMutability": "view",
      "type": "function"
    },
    {
      "inputs": [
        {
          "internalType": "uint256",
          "name": "",
          "type": "uint256"
        }
      ],
      "name": "definedPlayers",
      "outputs": [
        {
          "internalType": "string",
          "name": "name",
          "type": "string"
        },
        {
          "internalType": "string",
          "name": "main_field_position",
          "type": "string"
        },
        {
          "internalType": "string",
          "name": "nationality",
          "type": "string"
        },
        {
          "internalType": "string",
          "name": "current_team",
          "type": "string"
        },
        {
          "internalType": "uint256",
          "name": "playerScore",
          "type": "uint256"
        },
        {
          "internalType": "uint256",
          "name": "year",
          "type": "uint256"
        }
      ],
      "stateMutability": "view",
      "type": "function"
    },
    {
      "inputs": [
        {
          "internalType": "uint256",
          "name": "tokenId",
          "type": "uint256"
        }
      ],
      "name": "getApproved",
      "outputs": [
        {
          "internalType": "address",
          "name": "",
          "type": "address"
        }
      ],
      "stateMutability": "view",
      "type": "function"
    },
    {
      "inputs": [],
      "name": "getDefinedPlayers",
      "outputs": [
        {
          "components": [
            {
              "internalType": "string",
              "name": "name",
              "type": "string"
            },
            {
              "internalType": "string",
              "name": "main_field_position",
              "type": "string"
            },
            {
              "internalType": "string",
              "name": "nationality",
              "type": "string"
            },
            {
              "internalType": "string",
              "name": "current_team",
              "type": "string"
            },
            {
              "internalType": "uint256",
              "name": "playerScore",
              "type": "uint256"
            },
            {
              "internalType": "uint256",
              "name": "year",
              "type": "uint256"
            }
          ],
          "internalType": "struct FemaleFootballPlayers.Player[]",
          "name": "",
          "type": "tuple[]"
        }
      ],
      "stateMutability": "view",
      "type": "function"
    },
    {
      "inputs": [
        {
          "internalType": "uint256",
          "name": "index",
          "type": "uint256"
        }
      ],
      "name": "getPlayerByIndex",
      "outputs": [
        {
          "internalType": "string",
          "name": "",
          "type": "string"
        },
        {
          "internalType": "string",
          "name": "",
          "type": "string"
        },
        {
          "internalType": "string",
          "name": "",
          "type": "string"
        },
        {
          "internalType": "string",
          "name": "",
          "type": "string"
        },
        {
          "internalType": "uint256",
          "name": "",
          "type": "uint256"
        },
        {
          "internalType": "uint256",
          "name": "",
          "type": "uint256"
        }
      ],
      "stateMutability": "view",
      "type": "function"
    },
    {
      "inputs": [],
      "name": "getPlayerCount",
      "outputs": [
        {
          "internalType": "uint256",
          "name": "",
          "type": "uint256"
        }
      ],
      "stateMutability": "view",
      "type": "function"
    },
    {
      "inputs": [
        {
          "internalType": "uint256",
          "name": "tokenId",
          "type": "uint256"
        }
      ],
      "name": "getPlayerDetails",
      "outputs": [
        {
          "components": [
            {
              "internalType": "string",
              "name": "name",
              "type": "string"
            },
            {
              "internalType": "string",
              "name": "main_field_position",
              "type": "string"
            },
            {
              "internalType": "string",
              "name": "nationality",
              "type": "string"
            },
            {
              "internalType": "string",
              "name": "current_team",
              "type": "string"
            },
            {
              "internalType": "uint256",
              "name": "playerScore",
              "type": "uint256"
            },
            {
              "internalType": "uint256",
              "name": "year",
              "type": "uint256"
            }
          ],
          "internalType": "struct FemaleFootballPlayers.Player",
          "name": "",
          "type": "tuple"
        }
      ],
      "stateMutability": "view",
      "type": "function"
    },
    {
      "inputs": [
        {
          "internalType": "address",
          "name": "owner",
          "type": "address"
        },
        {
          "internalType": "address",
          "name": "operator",
          "type": "address"
        }
      ],
      "name": "isApprovedForAll",
      "outputs": [
        {
          "internalType": "bool",
          "name": "",
          "type": "bool"
        }
      ],
      "stateMutability": "view",
      "type": "function"
    },
    {
      "inputs": [
        {
          "internalType": "address",
          "name": "to",
          "type": "address"
        },
        {
          "internalType": "string",
          "name": "tokenURI",
          "type": "string"
        },
        {
          "internalType": "uint256",
          "name": "definedPlayerIndex",
          "type": "uint256"
        }
      ],
      "name": "mintPlayer",
      "outputs": [
        {
          "internalType": "uint256",
          "name": "",
          "type": "uint256"
        }
      ],
      "stateMutability": "nonpayable",
      "type": "function"
    },
    {
      "inputs": [],
      "name": "name",
      "outputs": [
        {
          "internalType": "string",
          "name": "",
          "type": "string"
        }
      ],
      "stateMutability": "view",
      "type": "function"
    },
    {
      "inputs": [],
      "name": "owner",
      "outputs": [
        {
          "internalType": "address",
          "name": "",
          "type": "address"
        }
      ],
      "stateMutability": "view",
      "type": "function"
    },
    {
      "inputs": [
        {
          "internalType": "uint256",
          "name": "tokenId",
          "type": "uint256"
        }
      ],
      "name": "ownerOf",
      "outputs": [
        {
          "internalType": "address",
          "name": "",
          "type": "address"
        }
      ],
      "stateMutability": "view",
      "type": "function"
    },
    {
      "inputs": [
        {
          "internalType": "uint256",
          "name": "",
          "type": "uint256"
        }
      ],
      "name": "playerInstanceCount",
      "outputs": [
        {
          "internalType": "uint256",
          "name": "",
          "type": "uint256"
        }
      ],
      "stateMutability": "view",
      "type": "function"
    },
    {
      "inputs": [
        {
          "internalType": "uint256",
          "name": "",
          "type": "uint256"
        },
        {
          "internalType": "address",
          "name": "",
          "type": "address"
        }
      ],
      "name": "playerInstanceOwnership",
      "outputs": [
        {
          "internalType": "bool",
          "name": "",
          "type": "bool"
        }
      ],
      "stateMutability": "view",
      "type": "function"
    },
    {
      "inputs": [
        {
          "internalType": "uint256",
          "name": "",
          "type": "uint256"
        }
      ],
      "name": "players",
      "outputs": [
        {
          "internalType": "string",
          "name": "name",
          "type": "string"
        },
        {
          "internalType": "string",
          "name": "main_field_position",
          "type": "string"
        },
        {
          "internalType": "string",
          "name": "nationality",
          "type": "string"
        },
        {
          "internalType": "string",
          "name": "current_team",
          "type": "string"
        },
        {
          "internalType": "uint256",
          "name": "playerScore",
          "type": "uint256"
        },
        {
          "internalType": "uint256",
          "name": "year",
          "type": "uint256"
        }
      ],
      "stateMutability": "view",
      "type": "function"
    },
    {
      "inputs": [],
      "name": "renounceOwnership",
      "outputs": [],
      "stateMutability": "nonpayable",
      "type": "function"
    },
    {
      "inputs": [
        {
          "internalType": "address",
          "name": "from",
          "type": "address"
        },
        {
          "internalType": "address",
          "name": "to",
          "type": "address"
        },
        {
          "internalType": "uint256",
          "name": "tokenId",
          "type": "uint256"
        }
      ],
      "name": "safeTransferFrom",
      "outputs": [],
      "stateMutability": "nonpayable",
      "type": "function"
    },
    {
      "inputs": [
        {
          "internalType": "address",
          "name": "from",
          "type": "address"
        },
        {
          "internalType": "address",
          "name": "to",
          "type": "address"
        },
        {
          "internalType": "uint256",
          "name": "tokenId",
          "type": "uint256"
        },
        {
          "internalType": "bytes",
          "name": "data",
          "type": "bytes"
        }
      ],
      "name": "safeTransferFrom",
      "outputs": [],
      "stateMutability": "nonpayable",
      "type": "function"
    },
    {
      "inputs": [
        {
          "internalType": "address",
          "name": "operator",
          "type": "address"
        },
        {
          "internalType": "bool",
          "name": "approved",
          "type": "bool"
        }
      ],
      "name": "setApprovalForAll",
      "outputs": [],
      "stateMutability": "nonpayable",
      "type": "function"
    },
    {
      "inputs": [
        {
          "internalType": "bytes4",
          "name": "interfaceId",
          "type": "bytes4"
        }
      ],
      "name": "supportsInterface",
      "outputs": [
        {
          "internalType": "bool",
          "name": "",
          "type": "bool"
        }
      ],
      "stateMutability": "view",
      "type": "function"
    },
    {
      "inputs": [],
      "name": "symbol",
      "outputs": [
        {
          "internalType": "string",
          "name": "",
          "type": "string"
        }
      ],
      "stateMutability": "view",
      "type": "function"
    },
    {
      "inputs": [
        {
          "internalType": "uint256",
          "name": "tokenId",
          "type": "uint256"
        }
      ],
      "name": "tokenURI",
      "outputs": [
        {
          "internalType": "string",
          "name": "",
          "type": "string"
        }
      ],
      "stateMutability": "view",
      "type": "function"
    },
    {
      "inputs": [],
      "name": "totalPlayers",
      "outputs": [
        {
          "internalType": "uint256",
          "name": "",
          "type": "uint256"
        }
      ],
      "stateMutability": "view",
      "type": "function"
    },
    {
      "inputs": [
        {
          "internalType": "address",
          "name": "from",
          "type": "address"
        },
        {
          "internalType": "address",
          "name": "to",
          "type": "address"
        },
        {
          "internalType": "uint256",
          "name": "tokenId",
          "type": "uint256"
        }
      ],
      "name": "transferFrom",
      "outputs": [],
      "stateMutability": "nonpayable",
      "type": "function"
    },
    {
      "inputs": [
        {
          "internalType": "address",
          "name": "newOwner",
          "type": "address"
        }
      ],
      "name": "transferOwnership",
      "outputs": [],
      "stateMutability": "nonpayable",
      "type": "function"
    }
  ],
  "transactionHash": "0x7598656c2ed31b6241fe435a51b3b4cffc95f44370cc64a22cc8c98bb17c27e1",
  "args": [],
  "numDeployments": 1,
  "solcInputHash": "975330e4cb9141022aec2d2db5059602",
  "bytecode": "0x60806040523480156200001157600080fd5b506040518060400160405280601581526020017f46656d616c65466f6f7462616c6c506c617965727300000000000000000000008152506040518060400160405280600381526020016204646560ec1b815250816000908162000075919062000bd0565b50600162000084828262000bd0565b505050620000a16200009b620000b160201b60201c565b620000b5565b620000ab62000107565b62000c9c565b3390565b600780546001600160a01b038381166001600160a01b0319831681179093556040519116919082907f8be0079c531659141344cd1fd0a4f28419497f9722a3daafe3b4186f6b6457e090600090a35050565b6040805161010081018252600c60c082019081526b4a617373696e6120426c6f6d60a01b60e0830152815281518083018352600a81526936b4b23334b2b63232b960b11b6020828101919091528083019190915282518084018452600781526642656c6769756d60c81b81830152828401528251808401909352601683527f5544204772616e6164696c6c612054656e657269666500000000000000000000908301526060810191909152605760808201526107e860a0820152600d805460018101825560009190915281516006909102600080516020620039a683398151915201908190620001f8908262000bd0565b50602082015160018201906200020f908262000bd0565b506040820151600282019062000226908262000bd0565b50606082015160038201906200023d908262000bd0565b50608082810151600483015560a0928301516005909201919091556040805161010081018252600e60c082019081526d54696e6520446520436169676e7960901b60e0830152815281518083018352600a8082526936b4b23334b2b63232b960b11b6020838101919091528084019290925283518085018552600781526642656c6769756d60c81b81840152838501528351808501909452835269486f6666656e6865696d60b01b9083015260608101919091526055918101919091526107e891810191909152600d805460018101825560009190915281516006909102600080516020620039a6833981519152019081906200033b908262000bd0565b506020820151600182019062000352908262000bd0565b506040820151600282019062000369908262000bd0565b506060820151600382019062000380908262000bd0565b50608082810151600483015560a0928301516005909201919091556040805161010081018252600c60c082019081526b139a58dade48115d9c985c9960a21b60e0830152815281518083018352600a81526933b7b0b635b2b2b832b960b11b602082810191909152808301919091528251808401845260078082526642656c6769756d60c81b828401528385019190915283518085019094528352664368656c73656160c81b908301526060810191909152605b918101919091526107e891810191909152600d805460018101825560009190915281516006909102600080516020620039a6833981519152019081906200047c908262000bd0565b506020820151600182019062000493908262000bd0565b5060408201516002820190620004aa908262000bd0565b5060608201516003820190620004c1908262000bd0565b50608082810151600483015560a0928301516005909201919091556040805161010081018252600d60c082018181526c4c697361204c6963687466757360981b60e0840152825282518084018452600a81526933b7b0b635b2b2b832b960b11b6020828101919091528084019190915283518085018552600781526642656c6769756d60c81b81830152838501528351808501909452600b84526a4c6520486176726520414360a81b9084015260608201929092526059928101929092526107e892820192909252815460018101835560009290925280519091600602600080516020620039a683398151915201908190620005be908262000bd0565b5060208201516001820190620005d5908262000bd0565b5060408201516002820190620005ec908262000bd0565b506060820151600382019062000603908262000bd0565b50608082810151600483015560a0928301516005909201919091556040805161010081018252601560c082019081527f4d61727461205669656972612064612053696c7661000000000000000000000060e08301528152815180830183526007815266199bdc9dd85c9960ca1b6020828101919091528083019190915282518084018452600680825265109c985e9a5b60d21b82840152838501919091528351808501909452600d8085526c4f726c616e646f20507269646560981b928501929092526060830193909352605f938201939093526107e893810193909352815460018101835560009290925282519102600080516020620039a68339815191520190819062000713908262000bd0565b50602082015160018201906200072a908262000bd0565b506040820151600282019062000741908262000bd0565b506060820151600382019062000758908262000bd0565b50608082810151600483015560a0928301516005909201919091556040805161010081018252600b60c082019081526a20b632bc1026b7b933b0b760a91b60e08301528152815180830183526007815266199bdc9dd85c9960ca1b6020828101919091528083019190915282518084018452600381526255534160e81b81830152828401528251808401909352600e83526d53616e20446965676f205761766560901b908301526060810191909152605d918101919091526107e891810191909152600d805460018101825560009190915281516006909102600080516020620039a68339815191520190819062000851908262000bd0565b506020820151600182019062000868908262000bd0565b50604082015160028201906200087f908262000bd0565b506060820151600382019062000896908262000bd0565b50608082810151600483015560a0928301516005909201919091556040805161010081018252600860c082019081526729b0b69025b2b93960c11b60e0830152815281518083018352600780825266199bdc9dd85c9960ca1b602083810191909152808401929092528351808501855260098152684175737472616c696160b81b818401528385015283518085019094528352664368656c73656160c81b908301526060810191909152605c918101919091526107e891810191909152600d805460018101825560009190915281516006909102600080516020620039a6833981519152019081906200098a908262000bd0565b5060208201516001820190620009a1908262000bd0565b5060408201516002820190620009b8908262000bd0565b5060608201516003820190620009cf908262000bd0565b50608082810151600483015560a0928301516005909201919091556040805161010081018252601060c082019081526f56697669616e6e65204d696564656d6160801b60e0830152815281518083018352600780825266199bdc9dd85c9960ca1b6020838101919091528084019290925283518085018552600b81526a4e65746865726c616e647360a81b81840152838501528351808501909452835266105c9cd95b985b60ca1b908301526060810191909152605b918101919091526107e891810191909152600d805460018101825560009190915281516006909102600080516020620039a68339815191520190819062000acd908262000bd0565b506020820151600182019062000ae4908262000bd0565b506040820151600282019062000afb908262000bd0565b506060820151600382019062000b12908262000bd0565b506080820151816004015560a082015181600501555050565b634e487b7160e01b600052604160045260246000fd5b600181811c9082168062000b5657607f821691505b60208210810362000b7757634e487b7160e01b600052602260045260246000fd5b50919050565b601f82111562000bcb57600081815260208120601f850160051c8101602086101562000ba65750805b601f850160051c820191505b8181101562000bc75782815560010162000bb2565b5050505b505050565b81516001600160401b0381111562000bec5762000bec62000b2b565b62000c048162000bfd845462000b41565b8462000b7d565b602080601f83116001811462000c3c576000841562000c235750858301515b600019600386901b1c1916600185901b17855562000bc7565b600085815260208120601f198616915b8281101562000c6d5788860151825594840194600190910190840162000c4c565b508582101562000c8c5787850151600019600388901b60f8161c191681555b5050505050600190811b01905550565b612cfa8062000cac6000396000f3fe608060405234801561001057600080fd5b50600436106101a95760003560e01c806395d89b41116100f9578063eeef0f9a11610097578063f48f0d8d11610071578063f48f0d8d146103f1578063f60cdcf614610404578063f71d96cb1461040d578063ff25eb8c1461042057600080fd5b8063eeef0f9a146103a4578063ef61eff1146103c9578063f2fde38b146103de57600080fd5b8063baa43e33116100d3578063baa43e331461032d578063c2e522061461034d578063c87b56dd14610355578063e985e9c51461036857600080fd5b806395d89b41146102ff578063a22cb46514610307578063b88d4fde1461031a57600080fd5b80634e7864db1161016657806370a082311161014057806370a08231146102a5578063715018a6146102c65780637d87b7d3146102ce5780638da5cb5b146102ee57600080fd5b80634e7864db1461025157806357b8836e1461027f5780636352211e1461029257600080fd5b806301ffc9a7146101ae57806306fdde03146101d6578063081812fc146101eb578063095ea7b31461021657806323b872dd1461022b57806342842e0e1461023e575b600080fd5b6101c16101bc366004612471565b610433565b60405190151581526020015b60405180910390f35b6101de61045e565b6040516101cd91906124de565b6101fe6101f93660046124f1565b6104f0565b6040516001600160a01b0390911681526020016101cd565b610229610224366004612526565b610517565b005b610229610239366004612550565b610631565b61022961024c366004612550565b610662565b6101c161025f36600461258c565b600c60209081526000928352604080842090915290825290205460ff1681565b61022961028d366004612664565b61067d565b6101fe6102a03660046124f1565b610758565b6102b86102b3366004612723565b6107b8565b6040519081526020016101cd565b61022961083e565b6102b86102dc3660046124f1565b600b6020526000908152604090205481565b6007546001600160a01b03166101fe565b6101de610852565b61022961031536600461273e565b610861565b61022961032836600461277a565b610870565b61034061033b3660046124f1565b6108a8565b6040516101cd9190612879565b600d546102b8565b6101de6103633660046124f1565b610bb7565b6101c161037636600461288c565b6001600160a01b03918216600090815260056020908152604080832093909416825291909152205460ff1690565b6103b76103b23660046124f1565b610cc7565b6040516101cd969594939291906128b6565b6103d1610f33565b6040516101cd9190612919565b6102296103ec366004612723565b6111ee565b6103b76103ff3660046124f1565b611267565b6102b8600a5481565b6103b761041b3660046124f1565b611530565b6102b861042e36600461297b565b61154b565b60006001600160e01b03198216632483248360e11b1480610458575061045882611a79565b92915050565b60606000805461046d906129d2565b80601f0160208091040260200160405190810160405280929190818152602001828054610499906129d2565b80156104e65780601f106104bb576101008083540402835291602001916104e6565b820191906000526020600020905b8154815290600101906020018083116104c957829003601f168201915b5050505050905090565b60006104fb82611ac9565b506000908152600460205260409020546001600160a01b031690565b600061052282610758565b9050806001600160a01b0316836001600160a01b0316036105945760405162461bcd60e51b815260206004820152602160248201527f4552433732313a20617070726f76616c20746f2063757272656e74206f776e656044820152603960f91b60648201526084015b60405180910390fd5b336001600160a01b03821614806105b057506105b08133610376565b6106225760405162461bcd60e51b815260206004820152603d60248201527f4552433732313a20617070726f76652063616c6c6572206973206e6f7420746f60448201527f6b656e206f776e6572206f7220617070726f76656420666f7220616c6c000000606482015260840161058b565b61062c8383611b28565b505050565b61063b3382611b96565b6106575760405162461bcd60e51b815260040161058b90612a0c565b61062c838383611c14565b61062c83838360405180602001604052806000815250610870565b610685611d78565b6040805160c08101825287815260208101879052908101859052606081018490526080810183905260a08101829052600d8054600181018255600091909152815160069091027fd7b6990105719101dabeb77144f2a3385c8033acd3af97e9423a695e81ad1eb5019081906106fa9082612aa7565b506020820151600182019061070f9082612aa7565b50604082015160028201906107249082612aa7565b50606082015160038201906107399082612aa7565b506080820151816004015560a082015181600501555050505050505050565b6000818152600260205260408120546001600160a01b0316806104585760405162461bcd60e51b8152602060048201526018602482015277115490cdcc8c4e881a5b9d985b1a59081d1bdad95b88125160421b604482015260640161058b565b60006001600160a01b0382166108225760405162461bcd60e51b815260206004820152602960248201527f4552433732313a2061646472657373207a65726f206973206e6f7420612076616044820152683634b21037bbb732b960b91b606482015260840161058b565b506001600160a01b031660009081526003602052604090205490565b610846611d78565b6108506000611dd2565b565b60606001805461046d906129d2565b61086c338383611e24565b5050565b61087a3383611b96565b6108965760405162461bcd60e51b815260040161058b90612a0c565b6108a284848484611ef2565b50505050565b6108e16040518060c001604052806060815260200160608152602001606081526020016060815260200160008152602001600081525090565b6000828152600260205260409020546001600160a01b031661093c5760405162461bcd60e51b8152602060048201526014602482015273151bdad95b88191bd95cc81b9bdd08195e1a5cdd60621b604482015260640161058b565b60008281526009602052604090819020815160c08101909252805482908290610964906129d2565b80601f0160208091040260200160405190810160405280929190818152602001828054610990906129d2565b80156109dd5780601f106109b2576101008083540402835291602001916109dd565b820191906000526020600020905b8154815290600101906020018083116109c057829003601f168201915b505050505081526020016001820180546109f6906129d2565b80601f0160208091040260200160405190810160405280929190818152602001828054610a22906129d2565b8015610a6f5780601f10610a4457610100808354040283529160200191610a6f565b820191906000526020600020905b815481529060010190602001808311610a5257829003601f168201915b50505050508152602001600282018054610a88906129d2565b80601f0160208091040260200160405190810160405280929190818152602001828054610ab4906129d2565b8015610b015780601f10610ad657610100808354040283529160200191610b01565b820191906000526020600020905b815481529060010190602001808311610ae457829003601f168201915b50505050508152602001600382018054610b1a906129d2565b80601f0160208091040260200160405190810160405280929190818152602001828054610b46906129d2565b8015610b935780601f10610b6857610100808354040283529160200191610b93565b820191906000526020600020905b815481529060010190602001808311610b7657829003601f168201915b50505050508152602001600482015481526020016005820154815250509050919050565b6060610bc282611ac9565b60008281526006602052604081208054610bdb906129d2565b80601f0160208091040260200160405190810160405280929190818152602001828054610c07906129d2565b8015610c545780601f10610c2957610100808354040283529160200191610c54565b820191906000526020600020905b815481529060010190602001808311610c3757829003601f168201915b505050505090506000610c7260408051602081019091526000815290565b90508051600003610c84575092915050565b815115610cb6578082604051602001610c9e929190612b67565b60405160208183030381529060405292505050919050565b610cbf84611f25565b949350505050565b600d8181548110610cd757600080fd5b9060005260206000209060060201600091509050806000018054610cfa906129d2565b80601f0160208091040260200160405190810160405280929190818152602001828054610d26906129d2565b8015610d735780601f10610d4857610100808354040283529160200191610d73565b820191906000526020600020905b815481529060010190602001808311610d5657829003601f168201915b505050505090806001018054610d88906129d2565b80601f0160208091040260200160405190810160405280929190818152602001828054610db4906129d2565b8015610e015780601f10610dd657610100808354040283529160200191610e01565b820191906000526020600020905b815481529060010190602001808311610de457829003601f168201915b505050505090806002018054610e16906129d2565b80601f0160208091040260200160405190810160405280929190818152602001828054610e42906129d2565b8015610e8f5780601f10610e6457610100808354040283529160200191610e8f565b820191906000526020600020905b815481529060010190602001808311610e7257829003601f168201915b505050505090806003018054610ea4906129d2565b80601f0160208091040260200160405190810160405280929190818152602001828054610ed0906129d2565b8015610f1d5780601f10610ef257610100808354040283529160200191610f1d565b820191906000526020600020905b815481529060010190602001808311610f0057829003601f168201915b5050505050908060040154908060050154905086565b6060600d805480602002602001604051908101604052809291908181526020016000905b828210156111e557838290600052602060002090600602016040518060c0016040529081600082018054610f8a906129d2565b80601f0160208091040260200160405190810160405280929190818152602001828054610fb6906129d2565b80156110035780601f10610fd857610100808354040283529160200191611003565b820191906000526020600020905b815481529060010190602001808311610fe657829003601f168201915b5050505050815260200160018201805461101c906129d2565b80601f0160208091040260200160405190810160405280929190818152602001828054611048906129d2565b80156110955780601f1061106a57610100808354040283529160200191611095565b820191906000526020600020905b81548152906001019060200180831161107857829003601f168201915b505050505081526020016002820180546110ae906129d2565b80601f01602080910402602001604051908101604052809291908181526020018280546110da906129d2565b80156111275780601f106110fc57610100808354040283529160200191611127565b820191906000526020600020905b81548152906001019060200180831161110a57829003601f168201915b50505050508152602001600382018054611140906129d2565b80601f016020809104026020016040519081016040528092919081815260200182805461116c906129d2565b80156111b95780601f1061118e576101008083540402835291602001916111b9565b820191906000526020600020905b81548152906001019060200180831161119c57829003601f168201915b505050505081526020016004820154815260200160058201548152505081526020019060010190610f57565b50505050905090565b6111f6611d78565b6001600160a01b03811661125b5760405162461bcd60e51b815260206004820152602660248201527f4f776e61626c653a206e6577206f776e657220697320746865207a65726f206160448201526564647265737360d01b606482015260840161058b565b61126481611dd2565b50565b6060806060806000806000600d888154811061128557611285612b96565b90600052602060002090600602016040518060c00160405290816000820180546112ae906129d2565b80601f01602080910402602001604051908101604052809291908181526020018280546112da906129d2565b80156113275780601f106112fc57610100808354040283529160200191611327565b820191906000526020600020905b81548152906001019060200180831161130a57829003601f168201915b50505050508152602001600182018054611340906129d2565b80601f016020809104026020016040519081016040528092919081815260200182805461136c906129d2565b80156113b95780601f1061138e576101008083540402835291602001916113b9565b820191906000526020600020905b81548152906001019060200180831161139c57829003601f168201915b505050505081526020016002820180546113d2906129d2565b80601f01602080910402602001604051908101604052809291908181526020018280546113fe906129d2565b801561144b5780601f106114205761010080835404028352916020019161144b565b820191906000526020600020905b81548152906001019060200180831161142e57829003601f168201915b50505050508152602001600382018054611464906129d2565b80601f0160208091040260200160405190810160405280929190818152602001828054611490906129d2565b80156114dd5780601f106114b2576101008083540402835291602001916114dd565b820191906000526020600020905b8154815290600101906020018083116114c057829003601f168201915b50505050508152602001600482015481526020016005820154815250509050806000015181602001518260400151836060015184608001518560a001519650965096509650965096505091939550919395565b600960205260009081526040902080548190610cfa906129d2565b600d5460009082106115965760405162461bcd60e51b8152602060048201526014602482015273092dcecc2d8d2c840e0d8c2f2cae440d2dcc8caf60631b604482015260640161058b565b6000828152600b6020526040902054600a1161160a5760405162461bcd60e51b815260206004820152602d60248201527f4d617820696e7374616e636573206f66207468697320706c617965722068617660448201526c19481899595b881b5a5b9d1959609a1b606482015260840161058b565b6000828152600c602090815260408083206001600160a01b038816845290915290205460ff16156116955760405162461bcd60e51b815260206004820152602f60248201527f4164647265737320616c7265616479206f776e7320616e20696e7374616e636560448201526e1037b3103a3434b990383630bcb2b960891b606482015260840161058b565b6116a3600880546001019055565b60006116ae60085490565b90506116ba8582611f99565b6116c48185612124565b6000600d84815481106116d9576116d9612b96565b90600052602060002090600602016040518060c0016040529081600082018054611702906129d2565b80601f016020809104026020016040519081016040528092919081815260200182805461172e906129d2565b801561177b5780601f106117505761010080835404028352916020019161177b565b820191906000526020600020905b81548152906001019060200180831161175e57829003601f168201915b50505050508152602001600182018054611794906129d2565b80601f01602080910402602001604051908101604052809291908181526020018280546117c0906129d2565b801561180d5780601f106117e25761010080835404028352916020019161180d565b820191906000526020600020905b8154815290600101906020018083116117f057829003601f168201915b50505050508152602001600282018054611826906129d2565b80601f0160208091040260200160405190810160405280929190818152602001828054611852906129d2565b801561189f5780601f106118745761010080835404028352916020019161189f565b820191906000526020600020905b81548152906001019060200180831161188257829003601f168201915b505050505081526020016003820180546118b8906129d2565b80601f01602080910402602001604051908101604052809291908181526020018280546118e4906129d2565b80156119315780601f1061190657610100808354040283529160200191611931565b820191906000526020600020905b81548152906001019060200180831161191457829003601f168201915b505050918352505060048201546020808301919091526005909201546040918201526000858152600990925290208151919250829181906119729082612aa7565b50602082015160018201906119879082612aa7565b506040820151600282019061199c9082612aa7565b50606082015160038201906119b19082612aa7565b506080820151600482015560a0909101516005909101556000848152600b602052604081208054916119e283612bac565b90915550506000848152600c602090815260408083206001600160a01b038a168452825291829020805460ff19166001179055825190830151838301516060850151608086015160a08701519551889633967f07f0c7f1d62c7a9841d28b57a2d790855c47fbd60f6be6c3e6aeb6e5669156cf96611a68969195909491939092906128b6565b60405180910390a350949350505050565b60006001600160e01b031982166380ac58cd60e01b1480611aaa57506001600160e01b03198216635b5e139f60e01b145b8061045857506301ffc9a760e01b6001600160e01b0319831614610458565b6000818152600260205260409020546001600160a01b03166112645760405162461bcd60e51b8152602060048201526018602482015277115490cdcc8c4e881a5b9d985b1a59081d1bdad95b88125160421b604482015260640161058b565b600081815260046020526040902080546001600160a01b0319166001600160a01b0384169081179091558190611b5d82610758565b6001600160a01b03167f8c5be1e5ebec7d5bd14f71427d1e84f3dd0314c0f7b2291e5b200ac8c7c3b92560405160405180910390a45050565b600080611ba283610758565b9050806001600160a01b0316846001600160a01b03161480611be957506001600160a01b0380821660009081526005602090815260408083209388168352929052205460ff165b80610cbf5750836001600160a01b0316611c02846104f0565b6001600160a01b031614949350505050565b826001600160a01b0316611c2782610758565b6001600160a01b031614611c4d5760405162461bcd60e51b815260040161058b90612bd3565b6001600160a01b038216611caf5760405162461bcd60e51b8152602060048201526024808201527f4552433732313a207472616e7366657220746f20746865207a65726f206164646044820152637265737360e01b606482015260840161058b565b826001600160a01b0316611cc282610758565b6001600160a01b031614611ce85760405162461bcd60e51b815260040161058b90612bd3565b600081815260046020908152604080832080546001600160a01b03199081169091556001600160a01b0387811680865260038552838620805460001901905590871680865283862080546001019055868652600290945282852080549092168417909155905184937fddf252ad1be2c89b69c2b068fc378daa952ba7f163c4a11628f55a4df523b3ef91a4505050565b6007546001600160a01b031633146108505760405162461bcd60e51b815260206004820181905260248201527f4f776e61626c653a2063616c6c6572206973206e6f7420746865206f776e6572604482015260640161058b565b600780546001600160a01b038381166001600160a01b0319831681179093556040519116919082907f8be0079c531659141344cd1fd0a4f28419497f9722a3daafe3b4186f6b6457e090600090a35050565b816001600160a01b0316836001600160a01b031603611e855760405162461bcd60e51b815260206004820152601960248201527f4552433732313a20617070726f766520746f2063616c6c657200000000000000604482015260640161058b565b6001600160a01b03838116600081815260056020908152604080832094871680845294825291829020805460ff191686151590811790915591519182527f17307eab39ab6107e8899845ad3d59bd9653f200f220920489ca2b5937696c31910160405180910390a3505050565b611efd848484611c14565b611f09848484846121ef565b6108a25760405162461bcd60e51b815260040161058b90612c18565b6060611f3082611ac9565b6000611f4760408051602081019091526000815290565b90506000815111611f675760405180602001604052806000815250611f92565b80611f71846122f0565b604051602001611f82929190612b67565b6040516020818303038152906040525b9392505050565b6001600160a01b038216611fef5760405162461bcd60e51b815260206004820181905260248201527f4552433732313a206d696e7420746f20746865207a65726f2061646472657373604482015260640161058b565b6000818152600260205260409020546001600160a01b0316156120545760405162461bcd60e51b815260206004820152601c60248201527f4552433732313a20746f6b656e20616c7265616479206d696e74656400000000604482015260640161058b565b6000818152600260205260409020546001600160a01b0316156120b95760405162461bcd60e51b815260206004820152601c60248201527f4552433732313a20746f6b656e20616c7265616479206d696e74656400000000604482015260640161058b565b6001600160a01b038216600081815260036020908152604080832080546001019055848352600290915280822080546001600160a01b0319168417905551839291907fddf252ad1be2c89b69c2b068fc378daa952ba7f163c4a11628f55a4df523b3ef908290a45050565b6000828152600260205260409020546001600160a01b031661219f5760405162461bcd60e51b815260206004820152602e60248201527f45524337323155524953746f726167653a2055524920736574206f66206e6f6e60448201526d32bc34b9ba32b73a103a37b5b2b760911b606482015260840161058b565b60008281526006602052604090206121b78282612aa7565b506040518281527ff8e1a15aba9398e019f0b49df1a4fde98ee17ae345cb5f6b5e2c27f5033e8ce79060200160405180910390a15050565b60006001600160a01b0384163b156122e557604051630a85bd0160e11b81526001600160a01b0385169063150b7a0290612233903390899088908890600401612c6a565b6020604051808303816000875af192505050801561226e575060408051601f3d908101601f1916820190925261226b91810190612ca7565b60015b6122cb573d80801561229c576040519150601f19603f3d011682016040523d82523d6000602084013e6122a1565b606091505b5080516000036122c35760405162461bcd60e51b815260040161058b90612c18565b805181602001fd5b6001600160e01b031916630a85bd0160e11b149050610cbf565b506001949350505050565b606060006122fd83612383565b600101905060008167ffffffffffffffff81111561231d5761231d6125b8565b6040519080825280601f01601f191660200182016040528015612347576020820181803683370190505b5090508181016020015b600019016f181899199a1a9b1b9c1cb0b131b232b360811b600a86061a8153600a850494508461235157509392505050565b60008072184f03e93ff9f4daa797ed6e38ed64bf6a1f0160401b83106123c25772184f03e93ff9f4daa797ed6e38ed64bf6a1f0160401b830492506040015b6d04ee2d6d415b85acef810000000083106123ee576d04ee2d6d415b85acef8100000000830492506020015b662386f26fc10000831061240c57662386f26fc10000830492506010015b6305f5e1008310612424576305f5e100830492506008015b612710831061243857612710830492506004015b6064831061244a576064830492506002015b600a83106104585760010192915050565b6001600160e01b03198116811461126457600080fd5b60006020828403121561248357600080fd5b8135611f928161245b565b60005b838110156124a9578181015183820152602001612491565b50506000910152565b600081518084526124ca81602086016020860161248e565b601f01601f19169290920160200192915050565b602081526000611f9260208301846124b2565b60006020828403121561250357600080fd5b5035919050565b80356001600160a01b038116811461252157600080fd5b919050565b6000806040838503121561253957600080fd5b6125428361250a565b946020939093013593505050565b60008060006060848603121561256557600080fd5b61256e8461250a565b925061257c6020850161250a565b9150604084013590509250925092565b6000806040838503121561259f57600080fd5b823591506125af6020840161250a565b90509250929050565b634e487b7160e01b600052604160045260246000fd5b600067ffffffffffffffff808411156125e9576125e96125b8565b604051601f8501601f19908116603f01168101908282118183101715612611576126116125b8565b8160405280935085815286868601111561262a57600080fd5b858560208301376000602087830101525050509392505050565b600082601f83011261265557600080fd5b611f92838335602085016125ce565b60008060008060008060c0878903121561267d57600080fd5b863567ffffffffffffffff8082111561269557600080fd5b6126a18a838b01612644565b975060208901359150808211156126b757600080fd5b6126c38a838b01612644565b965060408901359150808211156126d957600080fd5b6126e58a838b01612644565b955060608901359150808211156126fb57600080fd5b5061270889828a01612644565b9350506080870135915060a087013590509295509295509295565b60006020828403121561273557600080fd5b611f928261250a565b6000806040838503121561275157600080fd5b61275a8361250a565b91506020830135801515811461276f57600080fd5b809150509250929050565b6000806000806080858703121561279057600080fd5b6127998561250a565b93506127a76020860161250a565b925060408501359150606085013567ffffffffffffffff8111156127ca57600080fd5b8501601f810187136127db57600080fd5b6127ea878235602084016125ce565b91505092959194509250565b6000815160c0845261280b60c08501826124b2565b90506020830151848203602086015261282482826124b2565b9150506040830151848203604086015261283e82826124b2565b9150506060830151848203606086015261285882826124b2565b9150506080830151608085015260a083015160a08501528091505092915050565b602081526000611f9260208301846127f6565b6000806040838503121561289f57600080fd5b6128a88361250a565b91506125af6020840161250a565b60c0815260006128c960c08301896124b2565b82810360208401526128db81896124b2565b905082810360408401526128ef81886124b2565b9050828103606084015261290381876124b2565b6080840195909552505060a00152949350505050565b6000602080830181845280855180835260408601915060408160051b870101925083870160005b8281101561296e57603f1988860301845261295c8583516127f6565b94509285019290850190600101612940565b5092979650505050505050565b60008060006060848603121561299057600080fd5b6129998461250a565b9250602084013567ffffffffffffffff8111156129b557600080fd5b6129c186828701612644565b925050604084013590509250925092565b600181811c908216806129e657607f821691505b602082108103612a0657634e487b7160e01b600052602260045260246000fd5b50919050565b6020808252602d908201527f4552433732313a2063616c6c6572206973206e6f7420746f6b656e206f776e6560408201526c1c881bdc88185c1c1c9bdd9959609a1b606082015260800190565b601f82111561062c57600081815260208120601f850160051c81016020861015612a805750805b601f850160051c820191505b81811015612a9f57828155600101612a8c565b505050505050565b815167ffffffffffffffff811115612ac157612ac16125b8565b612ad581612acf84546129d2565b84612a59565b602080601f831160018114612b0a5760008415612af25750858301515b600019600386901b1c1916600185901b178555612a9f565b600085815260208120601f198616915b82811015612b3957888601518255948401946001909101908401612b1a565b5085821015612b575787850151600019600388901b60f8161c191681555b5050505050600190811b01905550565b60008351612b7981846020880161248e565b835190830190612b8d81836020880161248e565b01949350505050565b634e487b7160e01b600052603260045260246000fd5b600060018201612bcc57634e487b7160e01b600052601160045260246000fd5b5060010190565b60208082526025908201527f4552433732313a207472616e736665722066726f6d20696e636f72726563742060408201526437bbb732b960d91b606082015260800190565b60208082526032908201527f4552433732313a207472616e7366657220746f206e6f6e20455243373231526560408201527131b2b4bb32b91034b6b83632b6b2b73a32b960711b606082015260800190565b6001600160a01b0385811682528416602082015260408101839052608060608201819052600090612c9d908301846124b2565b9695505050505050565b600060208284031215612cb957600080fd5b8151611f928161245b56fea2646970667358221220763ac785f99361ad067267d75f9dc34bbd94df585e89abff2e951e33bdfdecde64736f6c63430008110033d7b6990105719101dabeb77144f2a3385c8033acd3af97e9423a695e81ad1eb5",
  "devdoc": {
    "kind": "dev",
    "methods": {
      "approve(address,uint256)": {
        "details": "See {IERC721-approve}."
      },
      "balanceOf(address)": {
        "details": "See {IERC721-balanceOf}."
      },
      "getApproved(uint256)": {
        "details": "See {IERC721-getApproved}."
      },
      "isApprovedForAll(address,address)": {
        "details": "See {IERC721-isApprovedForAll}."
      },
      "name()": {
        "details": "See {IERC721Metadata-name}."
      },
      "owner()": {
        "details": "Returns the address of the current owner."
      },
      "ownerOf(uint256)": {
        "details": "See {IERC721-ownerOf}."
      },
      "renounceOwnership()": {
        "details": "Leaves the contract without owner. It will not be possible to call `onlyOwner` functions. Can only be called by the current owner. NOTE: Renouncing ownership will leave the contract without an owner, thereby disabling any functionality that is only available to the owner."
      },
      "safeTransferFrom(address,address,uint256)": {
        "details": "See {IERC721-safeTransferFrom}."
      },
      "safeTransferFrom(address,address,uint256,bytes)": {
        "details": "See {IERC721-safeTransferFrom}."
      },
      "setApprovalForAll(address,bool)": {
        "details": "See {IERC721-setApprovalForAll}."
      },
      "supportsInterface(bytes4)": {
        "details": "See {IERC165-supportsInterface}"
      },
      "symbol()": {
        "details": "See {IERC721Metadata-symbol}."
      },
      "tokenURI(uint256)": {
        "details": "See {IERC721Metadata-tokenURI}."
      },
      "transferFrom(address,address,uint256)": {
        "details": "See {IERC721-transferFrom}."
      },
      "transferOwnership(address)": {
        "details": "Transfers ownership of the contract to a new account (`newOwner`). Can only be called by the current owner."
      }
    },
    "version": 1
  },
  "userdoc": {
    "kind": "user",
    "methods": {},
    "version": 1
  },
  "storageLayout": {
    "storage": [
      {
        "astId": 166,
        "contract": "contracts/FemaleFootballPlayers.sol:FemaleFootballPlayers",
        "label": "_name",
        "offset": 0,
        "slot": "0",
        "type": "t_string_storage"
      },
      {
        "astId": 168,
        "contract": "contracts/FemaleFootballPlayers.sol:FemaleFootballPlayers",
        "label": "_symbol",
        "offset": 0,
        "slot": "1",
        "type": "t_string_storage"
      },
      {
        "astId": 172,
        "contract": "contracts/FemaleFootballPlayers.sol:FemaleFootballPlayers",
        "label": "_owners",
        "offset": 0,
        "slot": "2",
        "type": "t_mapping(t_uint256,t_address)"
      },
      {
        "astId": 176,
        "contract": "contracts/FemaleFootballPlayers.sol:FemaleFootballPlayers",
        "label": "_balances",
        "offset": 0,
        "slot": "3",
        "type": "t_mapping(t_address,t_uint256)"
      },
      {
        "astId": 180,
        "contract": "contracts/FemaleFootballPlayers.sol:FemaleFootballPlayers",
        "label": "_tokenApprovals",
        "offset": 0,
        "slot": "4",
        "type": "t_mapping(t_uint256,t_address)"
      },
      {
        "astId": 186,
        "contract": "contracts/FemaleFootballPlayers.sol:FemaleFootballPlayers",
        "label": "_operatorApprovals",
        "offset": 0,
        "slot": "5",
        "type": "t_mapping(t_address,t_mapping(t_address,t_bool))"
      },
      {
        "astId": 1217,
        "contract": "contracts/FemaleFootballPlayers.sol:FemaleFootballPlayers",
        "label": "_tokenURIs",
        "offset": 0,
        "slot": "6",
        "type": "t_mapping(t_uint256,t_string_storage)"
      },
      {
        "astId": 7,
        "contract": "contracts/FemaleFootballPlayers.sol:FemaleFootballPlayers",
        "label": "_owner",
        "offset": 0,
        "slot": "7",
        "type": "t_address"
      },
      {
        "astId": 3064,
        "contract": "contracts/FemaleFootballPlayers.sol:FemaleFootballPlayers",
        "label": "_tokenId",
        "offset": 0,
        "slot": "8",
        "type": "t_struct(Counter)1742_storage"
      },
      {
        "astId": 3082,
        "contract": "contracts/FemaleFootballPlayers.sol:FemaleFootballPlayers",
        "label": "players",
        "offset": 0,
        "slot": "9",
        "type": "t_mapping(t_uint256,t_struct(Player)3077_storage)"
      },
      {
        "astId": 3084,
        "contract": "contracts/FemaleFootballPlayers.sol:FemaleFootballPlayers",
        "label": "totalPlayers",
        "offset": 0,
        "slot": "10",
        "type": "t_uint256"
      },
      {
        "astId": 3088,
        "contract": "contracts/FemaleFootballPlayers.sol:FemaleFootballPlayers",
        "label": "playerInstanceCount",
        "offset": 0,
        "slot": "11",
        "type": "t_mapping(t_uint256,t_uint256)"
      },
      {
        "astId": 3094,
        "contract": "contracts/FemaleFootballPlayers.sol:FemaleFootballPlayers",
        "label": "playerInstanceOwnership",
        "offset": 0,
        "slot": "12",
        "type": "t_mapping(t_uint256,t_mapping(t_address,t_bool))"
      },
      {
        "astId": 3098,
        "contract": "contracts/FemaleFootballPlayers.sol:FemaleFootballPlayers",
        "label": "definedPlayers",
        "offset": 0,
        "slot": "13",
        "type": "t_array(t_struct(Player)3077_storage)dyn_storage"
      }
    ],
    "types": {
      "t_address": {
        "encoding": "inplace",
        "label": "address",
        "numberOfBytes": "20"
      },
      "t_array(t_struct(Player)3077_storage)dyn_storage": {
        "base": "t_struct(Player)3077_storage",
        "encoding": "dynamic_array",
        "label": "struct FemaleFootballPlayers.Player[]",
        "numberOfBytes": "32"
      },
      "t_bool": {
        "encoding": "inplace",
        "label": "bool",
        "numberOfBytes": "1"
      },
      "t_mapping(t_address,t_bool)": {
        "encoding": "mapping",
        "key": "t_address",
        "label": "mapping(address => bool)",
        "numberOfBytes": "32",
        "value": "t_bool"
      },
      "t_mapping(t_address,t_mapping(t_address,t_bool))": {
        "encoding": "mapping",
        "key": "t_address",
        "label": "mapping(address => mapping(address => bool))",
        "numberOfBytes": "32",
        "value": "t_mapping(t_address,t_bool)"
      },
      "t_mapping(t_address,t_uint256)": {
        "encoding": "mapping",
        "key": "t_address",
        "label": "mapping(address => uint256)",
        "numberOfBytes": "32",
        "value": "t_uint256"
      },
      "t_mapping(t_uint256,t_address)": {
        "encoding": "mapping",
        "key": "t_uint256",
        "label": "mapping(uint256 => address)",
        "numberOfBytes": "32",
        "value": "t_address"
      },
      "t_mapping(t_uint256,t_mapping(t_address,t_bool))": {
        "encoding": "mapping",
        "key": "t_uint256",
        "label": "mapping(uint256 => mapping(address => bool))",
        "numberOfBytes": "32",
        "value": "t_mapping(t_address,t_bool)"
      },
      "t_mapping(t_uint256,t_string_storage)": {
        "encoding": "mapping",
        "key": "t_uint256",
        "label": "mapping(uint256 => string)",
        "numberOfBytes": "32",
        "value": "t_string_storage"
      },
      "t_mapping(t_uint256,t_struct(Player)3077_storage)": {
        "encoding": "mapping",
        "key": "t_uint256",
        "label": "mapping(uint256 => struct FemaleFootballPlayers.Player)",
        "numberOfBytes": "32",
        "value": "t_struct(Player)3077_storage"
      },
      "t_mapping(t_uint256,t_uint256)": {
        "encoding": "mapping",
        "key": "t_uint256",
        "label": "mapping(uint256 => uint256)",
        "numberOfBytes": "32",
        "value": "t_uint256"
      },
      "t_string_storage": {
        "encoding": "bytes",
        "label": "string",
        "numberOfBytes": "32"
      },
      "t_struct(Counter)1742_storage": {
        "encoding": "inplace",
        "label": "struct Counters.Counter",
        "members": [
          {
            "astId": 1741,
            "contract": "contracts/FemaleFootballPlayers.sol:FemaleFootballPlayers",
            "label": "_value",
            "offset": 0,
            "slot": "0",
            "type": "t_uint256"
          }
        ],
        "numberOfBytes": "32"
      },
      "t_struct(Player)3077_storage": {
        "encoding": "inplace",
        "label": "struct FemaleFootballPlayers.Player",
        "members": [
          {
            "astId": 3066,
            "contract": "contracts/FemaleFootballPlayers.sol:FemaleFootballPlayers",
            "label": "name",
            "offset": 0,
            "slot": "0",
            "type": "t_string_storage"
          },
          {
            "astId": 3068,
            "contract": "contracts/FemaleFootballPlayers.sol:FemaleFootballPlayers",
            "label": "main_field_position",
            "offset": 0,
            "slot": "1",
            "type": "t_string_storage"
          },
          {
            "astId": 3070,
            "contract": "contracts/FemaleFootballPlayers.sol:FemaleFootballPlayers",
            "label": "nationality",
            "offset": 0,
            "slot": "2",
            "type": "t_string_storage"
          },
          {
            "astId": 3072,
            "contract": "contracts/FemaleFootballPlayers.sol:FemaleFootballPlayers",
            "label": "current_team",
            "offset": 0,
            "slot": "3",
            "type": "t_string_storage"
          },
          {
            "astId": 3074,
            "contract": "contracts/FemaleFootballPlayers.sol:FemaleFootballPlayers",
            "label": "playerScore",
            "offset": 0,
            "slot": "4",
            "type": "t_uint256"
          },
          {
            "astId": 3076,
            "contract": "contracts/FemaleFootballPlayers.sol:FemaleFootballPlayers",
            "label": "year",
            "offset": 0,
            "slot": "5",
            "type": "t_uint256"
          }
        ],
        "numberOfBytes": "192"
      },
      "t_uint256": {
        "encoding": "inplace",
        "label": "uint256",
        "numberOfBytes": "32"
      }
    }
  }
}